:1000000037C051C0C1C14FC04EC04DC04CC04BC025
:100010004AC049C048C047C046C045C044C00403A8
:1000200009041C037700770077002E006600690042
:100030007300630068006C002E00640065000E030E
:10004000550053004200610073007000120110015E
:10005000FF000008C016DC050401010200010902CE
:1000600012000101008019090400000000000000D6
:1000700011241FBECFE5D2E0DEBFCDBF10E0A0E669
:10008000B0E0EAEAF4E102C005900D92A236B107B1
:10009000D9F710E0A2E6B0E001C01D92AC3AB1077A
:1000A000E1F7F2D500CAACCFAC9A8BB780628BBFB8
:1000B00008951F93CF93DF9360918900635067FD8C
:1000C00013C080918600CCE0D0E0C81BD109C35793
:1000D000DF4F809185008D3209F46DC080916300FF
:1000E00087FD93C0109289008091600084FF4AC010
:1000F000609161006F3F09F445C0693070F168504C
:10010000609361008091790098E889278093790055
:1001100068E08091630087FD9AC02091870030914C
:10012000880086FF7CC0AAE7B0E080E090E0F9019B
:10013000E80FF91FE491ED9301966817C1F761503C
:10014000862F90E06F5F0196820F931F9093880037
:1001500080938700162F1C5F0BC010926100809166
:10016000790098E8892780937900662391F614E056
:100170008AE790E0F2D01C3019F08FEF8093610095
:100180001093600094E186B38871D9F59150D9F746
:1001900010928A001092840011E080916200811711
:1001A00021F0112331F010936200DF91CF911F9164
:1001B000089587D5F8CF683009F094CF83EC809309
:1001C00079008AE5809360001092630088818076D0
:1001D00079F59A81109282008981882309F047C0BD
:1001E0001092830022E082E890E090938800809350
:1001F00087008F81882319F49E81921728F1922F0E
:1002000023C010E0992349F6C7CFCE01ABD58F3F6D
:1002100051F1882309F466CF1092610063CF962FC5
:10022000D901EAE7F0E08D9181939150E1F787CF12
:10023000CE01E0D6282F8F3FE1F6888187FD25C0CB
:100240009FEF80E880936300909361004BCF8AE733
:1002500090E05ED6682F893008F453C08FEF80930A
:1002600061001EE18DCF8EE1809360003BCF853031
:1002700071F0863091F0883031F1893061F18A3047
:1002800031F120E082E890E0B0CF9E81DACF909308
:100290008A0020E082E890E0A8CF8B81813049F18C
:1002A0008230F9F0833029F020E080E4809363000D
:1002B000A0CF992349F58EE190E090938800809338
:1002C000870024E0F2CF21E08CE890E08ECF21E09F
:1002D00082E890E08ACF90938C0020E082E890E062
:1002E00084CF8EE590E0909388008093870022E190
:1002F000DCCF8CE490E0909388008093870022E12B
:10030000D4CF182F1C5F34CF913051F0923061F66A
:100310008EE390E090938800809387002EE0C5CF15
:1003200082E290E090938800809387002CE1BDCF1B
:10033000A82FB92F80E090E041E050EA609530E0CE
:1003400009C02D9182279795879510F084279527CE
:10035000305EC8F36F5FA8F30895EADF8D939D9335
:100360000895A6E088279927AA9569F00197E1F3F7
:10037000B399FCCFB39BFECF81E09927A6B301963A
:1003800011F0A871D9F70895CF93CFB7CF93C39544
:10039000B39BE9F7B39B0BC0B39B09C0B39B07C0EA
:1003A000B39B05C0B39B03C0B39B01C0D3C00F92E6
:1003B000DF93C0918600DD27C357DF4F012EB39B2B
:1003C00003C0DF910F90E6CF2F930F931F934F93AE
:1003D0002FEF4F6F06B303FB20F95F933F9350E07D
:1003E0003BE065C016B30126502953FDC89556B3AE
:1003F000012703FB25F92F7306B3B1F0502710270F
:1004000013FB26F906B22230F0F000C016B3012724
:1004100003FB27F90126502906B22430E8F54F776F
:10042000206816B30000F6CF50274F7D206206B239
:10043000102F000000C006B300265029102713FB20
:1004400026F906B2E2CF4F7B06B3206400C0DACFB4
:1004500001265029187106B269F14E7F2160012FE3
:1004600016B328C0002650294D7F06B22260102FF7
:1004700029C0012650294B7F06B22460012F2DC0D0
:1004800016B301265029477F2860000006B22EC00F
:100490004F7E06B3206130C0422706B34993002641
:1004A0005029102706B24FEF13FB20F9297F16B30E
:1004B00079F2187159F10126502906B2012703FB80
:1004C00021F9237F06B371F2002650293150D0F074
:1004D00006B2102713FB22F9277E16B351F201262C
:1004E0005029012703FB06B223F92F7C49F20000B3
:1004F00006B3102713FB24F90026502906B22F79E2
:1005000039F270CF10E21ABF002717C03B50319567
:10051000C31BD04010E21ABF0881033CF9F00B3432
:10052000E9F0209184001981110F1213EDCF0936E3
:1005300051F10D3211F0013E39F700938B003F91DC
:100540005F914F911F910F912F91DF910F90CAB73B
:10055000C5FD1DCFCF91CFBFCF91189520918B00B6
:10056000222369F310918900112321F5343022F1FF
:100570003093890020938500109186003BE0311B69
:100580003093860019C00091890001309CF40AE57F
:100590003091600034FD11C000936000C9E7D0E0E5
:1005A00010C0052710E000C021C0052710E0C89545
:1005B00008BB14C03AE501C032ED032EC0E0D0E024
:1005C00032E017B31861C39A08B317BB58E120E8AB
:1005D0004FEF20FF052708BB279517951C3F28F7ED
:1005E00000004552B0F720FF0527279508BB179557
:1005F0001C3FB8F629913A9561F7077E10918A0061
:10060000110F08BBC250D04011F01093840010E2CB
:100610001ABF086017B3177E402F477E54E05A95E3
:10062000F1F708BB17BB48BB8ACF8823C1F02FE97D
:1006300033E03093A5002093A400843079F1853015
:1006400018F1863041F1863068F1883071F481E02C
:100650008093A9008091A8008F3F71F008952FE941
:1006600033E03093A5002093A40083E08093A90099
:100670008091A8008F3F91F73093A5002093A400AC
:1006800082E08093A90008958230A1F0833070F455
:10069000813059F780EC8093A900DCCF88E180930A
:1006A000A900D8CF8CE08093A900D4CF80E38093B9
:1006B000A900D0CF80E68093A900CCCF22B790913B
:1006C000A90082B7821B8917E0F3089587B385627A
:1006D00087BB8091A800882399F4C598C29892B7E7
:1006E0002091A90082B7891B8217E0F3C59A92B7BF
:1006F00082B7891B8217E0F3C5981092A70008956E
:10070000C59AC29822B79091A90082B7821B891717
:10071000E0F3C59822B782B7821B8917E0F3C59A28
:1007200022B782B7821B8917E0F31092A7000895C1
:1007300087B38A7D87BB88B38A7D88BB0895582F8D
:100740002091A90040E030E057FD16C0C098440F4A
:10075000B1994F5FC29A92B782B7891B8217E0F3B3
:10076000C29892B782B7891B8217E0F33F5F383097
:1007700029F0550F57FFEACFC09AE9CF842F08958B
:100780000F931F931092A800A1DF0FE1E091A40046
:10079000F091A5008CEA0995E091A400F091A500E4
:1007A00083E50995E091A400F091A50080E009950A
:1007B000182FE091A400F091A50080E00995133571
:1007C000B9F022B79091A90082B7821B8917E0F394
:1007D000C59A22B782B7821B8917E0F3C59822B762
:1007E00082B7821B8917E0F3002331F00150CECF8E
:1007F00080E01F910F9108958FEF8093A8008FE9FB
:1008000093E09093A5008093A40082E08093A900D8
:100810005DDF1FE1E091A400F091A5008CEA09954D
:10082000E091A400F091A50083E50995E091A40072
:10083000F091A50080E00995E091A400F091A50059
:1008400080E009958936A1F2C29A92B72091A90059
:1008500082B7891B8217E0F3C29892B782B7891BCF
:100860008217E0F3112311F01150D4CF81E01F91D2
:100870000F9108959B01AC0181E1569547953795FD
:1008800027958A95D1F78091A7008217D9F02093F8
:10089000A700E091A400F091A5008DE40995E091F6
:1008A000A400F091A50080E00995E091A400F091EA
:1008B000A5008091A7000995E091A400F091A50002
:1008C00080E009950895EF92FF920F931F937B01AB
:1008D0008C01D0DF8091A800882301F1E091A40071
:1008E000F091A50080E20995BB27A12F902F8F2DB5
:1008F000E091A400F091A5000995E091A400F09189
:10090000A5008E2D0995E091A400F091A50080E04E
:1009100009951F910F91FF90EF9008958E2D817092
:10092000880F880F880FE091A400F091A5008062E5
:100930000995D801C70139E0B695A7959795879590
:100940003A95D1F7E091A400F091A500099516958C
:100950000795F794E794E091A400F091A5008E2DFF
:100960000995D1CF0F931F938C01E091A400F091D2
:10097000A50080EA0995E091A400F091A500812FDF
:100980000995E091A400F091A500802F0995E091D0
:10099000A400F091A50080E009951F910F910895A2
:1009A000FF920F931F938C01F62EE091A400F0911B
:1009B000A50080EC0995E091A400F091A500812F9D
:1009C0000995E091A400F091A500802F0995E09190
:1009D000A400F091A5008F2D09958EE1DFD080E075
:1009E0001F910F91FF900895CF92DF92EF92FF92A7
:1009F0000F931F936B017C01142F3CDFE091A40047
:100A0000F091A5008CE40995D701C60159E0B6958F
:100A1000A795979587955A95D1F7E091A400F09105
:100A2000A5000995D701C601B695A7959795879515
:100A3000E091A400F091A5000995E091A400F09147
:100A4000A50080E009951F3FF1F012B70EE1C70144
:100A5000B60139DF8F3F79F482B7811B8335B8F354
:100A600012B70150A1F781E01F910F91FF90EF9015
:100A7000DF90CF90089580E01F910F91FF90EF904D
:100A8000DF90CF9008958FE089D080E01F910F9183
:100A9000FF90EF90DF90CF900895CF92DF92EF928A
:100AA000FF920F931F937B018C01D42EC22E809155
:100AB000A800882309F043C0C801B701DBDE8E2DF2
:100AC0008170880F880F880FE091A400F091A50035
:100AD00080640995D801C701F9E0B695A795979567
:100AE0008795FA95D1F7E091A400F091A5000995BA
:100AF000D801C701B695A79597958795E091A40071
:100B0000F091A5000995E091A400F091A5008D2D2C
:100B10000995CC20B9F18FE7D816E1F1D2B67EE184
:100B2000C72EC801B701CFDE8F3761F582B78D19A7
:100B30008335B8F3D2B6CA94A1F781E01CC0E09126
:100B4000A400F091A50080E40995BB27A12F902F68
:100B50008F2DE091A400F091A5000995E091A400EB
:100B6000F091A5008E2D0995E091A400F091A500CB
:100B70008D2D099580E01F910F91FF90EF90DF90F0
:100B8000CF90089580E01F910F91FF90EF90DF903C
:100B9000CF9008958FE002D080E0EDCF382F8823EA
:100BA00049F020E092B782B7891B8235E0F32F5FCE
:100BB0002317C0F30895BA9AB898C09A50E217D094
:100BC0005A95E9F70895AC0188E605D0842F03D043
:100BD00089E601D0852F0FD028E030E0382780FB50
:100BE000869506D02A95D1F730FB02D000D06894C4
:100BF000B898C09A16F0C098B89AE091AA00F091FF
:100C0000AB003197F0F7C29AE6B3E0FBE091AA009F
:100C1000F091AB003197F0F7C298089520ECE7DF30
:100C200046F42A95E1F780E02AE1E5DF2A95E9F725
:100C3000DECF28E030E0DBDF869587F938272A957C
:100C4000D1F7D5DF27F9322772F3D1DFD0CFDB011F
:100C5000742FB9DF84E2BFDFE1DF8D937A95D1F79E
:100C60000895DB01742FAFDF83EFB5DF8DE1B3DFD4
:100C700084E6B1DF8D91AFDF82E7ADDFCFDF807833
:100C8000D9F77A9589F7089518BA80E090E0F6D3FD
:100C90008F3F09F081BFBB9A80E0E2EBF1EF319723
:100CA000F1F700C000008F5F8431B9F7BB9817BA25
:100CB0001092A80083E083BFF7D97894FAD9F9D9C4
:100CC000FDCFDF92EF92FF920F931F93CF93DF93AD
:100CD000DD2480E8E82E00E010E001C0DF2CFE2CCF
:100CE000FD0CF1BE3EDBEC0189E0C433D8070CF00B
:100CF000FD2CE6940F5F1F4F0830110579F7FA9429
:100D0000F1BEF39481B70F2D10E00F5F1F4F90E0FD
:100D1000081719075CF419C09E0181B78F5F81BF66
:100D200081B790E00817190784F0E9011ADB9C01EC
:100D30002453394037FD05C02C173D076CF7F1B639
:100D4000ECCF309521953F4FF7CFF1BE61B780E0F2
:100D500090E09CD3DF91CF911F910F91FF90EF9086
:100D6000DF900895FF920F931F93CF93DF93082F87
:100D7000792FF62E40916400413069F0443059F0EB
:100D8000463009F492C01FEF812FDF91CF911F9160
:100D90000F91FF900895FF2009F4B2C0802F972F84
:100DA0009C01E90110E053C080917500909176009C
:100DB000892B09F058C06091710070917200809188
:100DC000730090917400488121E067DE8091650096
:100DD0009091660001979093660080936500892B3F
:100DE000D9F4109264008091770081FF3AC080911D
:100DF000780090E02091750030917600821793077B
:100E000081F16091710070917200809173009091F6
:100E100074004881E9DD11E08091710090917200C9
:100E2000A0917300B09174000196A11DB11D809333
:100E3000710090937200A0937300B0937400219698
:100E40009E01201B2F1508F09FCF40916400413078
:100E500009F4AACF80917100909172006881A0DDA1
:100E6000B5CF11E0D9CF609171007091720080917F
:100E7000730090917400488120E00FDE809178002B
:100E8000815080937800882309F0A0CF6091710091
:100E90007091720080917300909174004881A4DD7C
:100EA000809175008093780091CF8091710090912E
:100EB0007200602F4F2DD5DE8091710090917200ED
:100EC000A0917300B09174008F0D911DA11DB11DF3
:100ED0008093710090937200A0937300B09374009C
:100EE00080916500909166008F199109909366003A
:100EF00080936500892B21F41092640011E044CFA7
:100F000010E0812FDF91CF911F910F91FF900895F5
:100F10000F931F93CF93DF93082F792F162F4091B4
:100F20006400842F8250823050F0453009F446C06E
:100F30001FEF812FDF91CF911F910F9108954530C1
:100F4000E9F1662399F1802F9C01E90120C080918D
:100F500071009091720006DD8883809171009091FC
:100F60007200A0917300B09174000196A11DB11D93
:100F70008093710090937200A0937300B0937400FB
:100F800021969E01201B211778F440916400423085
:100F9000F1F66091710070917200809173009091F0
:100FA000740091DC8883D9CF183018F61092640051
:100FB000812FDF91CF911F910F9108958091710042
:100FC00090917200602F412F42DE809171009091CC
:100FD0007200A0917300B0917400810F911DA11D4A
:100FE000B11D8093710090937200A0937300B09331
:100FF00074009FCF0F931F93CF93DF93EC018981F0
:10100000813009F4E6C0823009F4EDC0833009F480
:1010100084C0843009F452C0873009F4ADC08530F3
:1010200009F482C1863009F0E3C08091680088230A
:1010300091F49B8180E02A8130E0822B932BAA27B8
:1010400097FDA095BA2F8093710090937200A093A2
:101050007300B09374008C818093750010927600B9
:101060002D812F70209377008D81482F50E0407F95
:10107000507042955295507F5427407F542780915D
:10108000750090917600480F591F50937600409359
:10109000750020FF02C0409378009F8180E02E8180
:1010A00030E0822B932B909366008093650081E063
:1010B000809364008FEF09E610E026C080916800FD
:1010C000882391F49B8180E02A8130E0822B932B4E
:1010D000AA2797FDA095BA2F809371009093720074
:1010E000A0937300B09374009F8180E02E8130E064
:1010F000822B932B909366008093650082E080930F
:1011000064008FEF09E610E01093880000938700D9
:10111000DF91CF911F910F9108958091A8008823AE
:1011200009F451C08A81843209F4C9C0803309F4BA
:10113000F5C0E091A400F091A500099509E610E042
:1011400080936900E091A400F091A5008B8109953E
:1011500080936A00E091A400F091A5008C8109952C
:1011600080936B00E091A400F091A5008D8109951A
:1011700080936C0084E0C8CF80916800882391F44C
:101180009B8180E02A8130E0822B932BAA2797FD58
:10119000A095BA2F8093710090937200A093730072
:1011A000B09374009F8180E02E8130E0822B932BDE
:1011B000909366008093650083E0809364008FEFD6
:1011C00009E610E0A1CFE091A400F091A5008A818A
:1011D000B4CF8091670029DA1092680077DA80E056
:1011E00009E610E091CFA4DA80E009E610E08CCFA8
:1011F0008830C1F1893009F4AAC08A3009F4C4C02A
:101200008B3009F4EFC08C3009F408C18D3009F43B
:101210001BC18E3009F41FC18F3009F0BEC09B8105
:1012200080E02A8130E0822B932BAA2797FDA0959E
:10123000BA2F8093710090937200A0937300B093C3
:1012400074009F8180E02E8130E0822B932B90935D
:1012500066008093650085E0809364008FEF09E667
:1012600010E052CF80916800882391F49B8180E048
:101270002A8130E0822B932BAA2797FDA095BA2FC5
:101280008093710090937200A0937300B0937400E8
:101290001092760010927500109277009F8180E086
:1012A0002E8130E0822B932B909366008093650013
:1012B00084E0809364008FEF09E610E025CFE09191
:1012C000A400F091A500099509E610E0809369005B
:1012D000E091A400F091A5008B81099580936A00AC
:1012E000E091A400F091A5008C81099580936B009A
:1012F000E091A400F091A5008D81099590E08C719A
:10130000907084309105D9F185309105A4F4892B32
:10131000B9F480EE80936C0084E0F6CEE091A400F6
:10132000F091A50088E209CF2BDA09E610E080935E
:10133000690081E0E9CE8C309105E1F04C9711F025
:1013400084E0E2CE8FEF80936C0084E0DDCE81E01C
:10135000809368008A819B81AC81BD8180937100FC
:1013600090937200A0937300B093740080E009E63C
:1013700010E0CACE8EEE80936C0084E0C5CE85EE80
:1013800080936C0084E0C0CE8A818093670009E678
:1013900010E01092690081E0B7CE8031C9F59B81E1
:1013A00080E02A8130E0822B932BAA2797FDA0951D
:1013B000BA2F8093710090937200A0937300B09342
:1013C00074009F8180E02E8130E0822B932B9093DC
:1013D00066008093650086E0809364008FEF09E6E5
:1013E00010E092CE9B8180E02A8130E0822B932B0B
:1013F0009093AB008093AA00C59ABD9A83E0CEDBA0
:10140000C59880E1CBDBD7DB80E009E610E07CCE3D
:101410008F3739F180E009E610E076CE80ECDBDB37
:1014200080E0D9DB8AE0BADBC59A85E0B7DBC598F6
:1014300085E0B4DB87B38A7D87BB88B38A7D88BBB0
:1014400080E009E610E060CEE9DB09E610E0809379
:10145000690081E059CE8A81BEDB80E009E610E0B8
:1014600053CE09E610E081E08093690010926A0093
:1014700010926B0010926C0084E046CEE199FECF92
:101480001FBA8EBBE09A99278DB30895262FE19954
:10149000FECF1FBA8EBB2DBB0FB6F894E29AE19A2D
:0A14A0000FBE01960895F894FFCFE7
:0214AA005AFFE7
:00000001FF
